{
  "contractName": "Discount",
  "abi": [
    {
      "constant": true,
      "inputs": [
        {
          "name": "",
          "type": "int256"
        }
      ],
      "name": "product",
      "outputs": [
        {
          "name": "id",
          "type": "int256"
        },
        {
          "name": "name",
          "type": "string"
        },
        {
          "name": "price",
          "type": "int256"
        }
      ],
      "payable": false,
      "stateMutability": "view",
      "type": "function"
    },
    {
      "constant": true,
      "inputs": [
        {
          "name": "",
          "type": "int256"
        }
      ],
      "name": "retailer",
      "outputs": [
        {
          "name": "id",
          "type": "int256"
        },
        {
          "name": "name",
          "type": "string"
        },
        {
          "name": "retailerAddr",
          "type": "string"
        }
      ],
      "payable": false,
      "stateMutability": "view",
      "type": "function"
    },
    {
      "constant": true,
      "inputs": [
        {
          "name": "",
          "type": "int256"
        }
      ],
      "name": "couponCode",
      "outputs": [
        {
          "name": "id",
          "type": "int256"
        },
        {
          "name": "prdId",
          "type": "int256"
        },
        {
          "name": "retailerId",
          "type": "int256"
        },
        {
          "name": "discount",
          "type": "int256"
        },
        {
          "name": "date",
          "type": "string"
        },
        {
          "name": "code",
          "type": "bytes32"
        }
      ],
      "payable": false,
      "stateMutability": "view",
      "type": "function"
    },
    {
      "constant": true,
      "inputs": [],
      "name": "retailerCount",
      "outputs": [
        {
          "name": "",
          "type": "int256"
        }
      ],
      "payable": false,
      "stateMutability": "view",
      "type": "function"
    },
    {
      "constant": true,
      "inputs": [],
      "name": "couponCount",
      "outputs": [
        {
          "name": "",
          "type": "int256"
        }
      ],
      "payable": false,
      "stateMutability": "view",
      "type": "function"
    },
    {
      "constant": true,
      "inputs": [],
      "name": "productCount",
      "outputs": [
        {
          "name": "",
          "type": "int256"
        }
      ],
      "payable": false,
      "stateMutability": "view",
      "type": "function"
    },
    {
      "inputs": [],
      "payable": false,
      "stateMutability": "nonpayable",
      "type": "constructor"
    },
    {
      "constant": false,
      "inputs": [
        {
          "name": "x",
          "type": "int256"
        },
        {
          "name": "y",
          "type": "string"
        },
        {
          "name": "z",
          "type": "int256"
        }
      ],
      "name": "addProduct",
      "outputs": [],
      "payable": false,
      "stateMutability": "nonpayable",
      "type": "function"
    },
    {
      "constant": false,
      "inputs": [
        {
          "name": "x",
          "type": "int256"
        },
        {
          "name": "y",
          "type": "string"
        },
        {
          "name": "p",
          "type": "string"
        }
      ],
      "name": "addRetailer",
      "outputs": [],
      "payable": false,
      "stateMutability": "nonpayable",
      "type": "function"
    },
    {
      "constant": false,
      "inputs": [
        {
          "name": "x",
          "type": "int256"
        },
        {
          "name": "y",
          "type": "int256"
        },
        {
          "name": "z",
          "type": "int256"
        },
        {
          "name": "q",
          "type": "int256"
        },
        {
          "name": "p",
          "type": "string"
        },
        {
          "name": "r",
          "type": "bytes32"
        }
      ],
      "name": "addCoupon",
      "outputs": [],
      "payable": false,
      "stateMutability": "nonpayable",
      "type": "function"
    },
    {
      "constant": false,
      "inputs": [
        {
          "name": "x",
          "type": "int256"
        },
        {
          "name": "y",
          "type": "int256"
        },
        {
          "name": "z",
          "type": "int256"
        },
        {
          "name": "q",
          "type": "int256"
        },
        {
          "name": "p",
          "type": "string"
        },
        {
          "name": "r",
          "type": "bytes32"
        }
      ],
      "name": "updateCoupon",
      "outputs": [],
      "payable": false,
      "stateMutability": "nonpayable",
      "type": "function"
    }
  ],
  "bytecode": "0x60806040523480156200001157600080fd5b5060006003819055506200006460016040518060400160405280600b81526020017f50726f64756374202d2031000000000000000000000000000000000000000000815250600a6200054960201b60201c565b620000ae60026040518060400160405280600b81526020017f50726f64756374202d203200000000000000000000000000000000000000000081525060146200054960201b60201c565b620000f860036040518060400160405280600b81526020017f50726f64756374202d2033000000000000000000000000000000000000000000815250601e6200054960201b60201c565b6200017660016040518060400160405280600c81526020017f52657461696c6572202d203100000000000000000000000000000000000000008152506040518060400160405280600381526020017f3078300000000000000000000000000000000000000000000000000000000000815250620005bf60201b60201c565b620001f460026040518060400160405280600c81526020017f52657461696c6572202d203200000000000000000000000000000000000000008152506040518060400160405280600381526020017f3078310000000000000000000000000000000000000000000000000000000000815250620005bf60201b60201c565b6200027260036040518060400160405280600c81526020017f52657461696c6572202d203300000000000000000000000000000000000000008152506040518060400160405280600381526020017f3078320000000000000000000000000000000000000000000000000000000000815250620005bf60201b60201c565b620002d460046040518060400160405280600c81526020017f52657461696c6572202d203400000000000000000000000000000000000000008152506040518060600160405280602a8152602001620016b6602a9139620005bf60201b60201c565b6200033660056040518060400160405280600c81526020017f52657461696c6572202d203500000000000000000000000000000000000000008152506040518060600160405280602a8152602001620016e0602a9139620005bf60201b60201c565b620003b460066040518060400160405280600c81526020017f52657461696c6572202d203600000000000000000000000000000000000000008152506040518060400160405280600381526020017f3078350000000000000000000000000000000000000000000000000000000000815250620005bf60201b60201c565b620004036001806001600a6040518060400160405280600a81526020017f323031392d30322d30330000000000000000000000000000000000000000000081525060006200064b60201b60201c565b6200045360026001600260146040518060400160405280600a81526020017f323031392d30322d30330000000000000000000000000000000000000000000081525060006200064b60201b60201c565b620004a360036001600260326040518060400160405280600a81526020017f323031392d30322d30330000000000000000000000000000000000000000000081525060006200064b60201b60201c565b620004f3600460026001601e6040518060400160405280600a81526020017f323031392d30322d30330000000000000000000000000000000000000000000081525060006200064b60201b60201c565b6200054360056003600260286040518060400160405280600a81526020017f323031392d30322d30330000000000000000000000000000000000000000000081525060006200064b60201b60201c565b620007a4565b6001600454016004819055506040518060600160405280848152602001838152602001828152506000806004548152602001908152602001600020600082015181600001556020820151816001019080519060200190620005ac929190620006f5565b5060408201518160020155905050505050565b60016005540160058190555060405180606001604052808481526020018381526020018281525060016000600354815260200190815260200160002060008201518160000155602082015181600101908051906020019062000623929190620006f5565b50604082015181600201908051906020019062000642929190620006f5565b50905050505050565b6001600354016003819055506040518060c0016040528087815260200186815260200185815260200184815260200183815260200182815250600260006003548152602001908152602001600020600082015181600001556020820151816001015560408201518160020155606082015181600301556080820151816004019080519060200190620006df929190620006f5565b5060a08201518160050155905050505050505050565b828054600181600116156101000203166002900490600052602060002090601f016020900481019282601f106200073857805160ff191683800117855562000769565b8280016001018555821562000769579182015b82811115620007685782518255916020019190600101906200074b565b5b5090506200077891906200077c565b5090565b620007a191905b808211156200079d57600081600090555060010162000783565b5090565b90565b610f0280620007b46000396000f3fe608060405234801561001057600080fd5b506004361061009e5760003560e01c80638e7adbc8116100665780638e7adbc81461044757806399eeae47146105a3578063d0e2392314610672578063ddecadc414610690578063e0f6ef871461077d5761009e565b806309715fb9146100a357806315200e0b146101585780632b757d69146102455780634493457c1461035f57806347c16a7f14610429575b600080fd5b6100cf600480360360208110156100b957600080fd5b810190808035906020019092919050505061079b565b6040518084815260200180602001838152602001828103825284818151815260200191508051906020019080838360005b8381101561011b578082015181840152602081019050610100565b50505050905090810190601f1680156101485780820380516001836020036101000a031916815260200191505b5094505050505060405180910390f35b610243600480360360c081101561016e57600080fd5b8101908080359060200190929190803590602001909291908035906020019092919080359060200190929190803590602001906401000000008111156101b357600080fd5b8201836020820111156101c557600080fd5b803590602001918460018302840111640100000000831117156101e757600080fd5b91908080601f016020809104026020016040519081016040528093929190818152602001838380828437600081840152601f19601f8201169050808301925050505050505091929192908035906020019092919050505061085d565b005b6102716004803603602081101561025b57600080fd5b8101908080359060200190929190505050610905565b604051808481526020018060200180602001838103835285818151815260200191508051906020019080838360005b838110156102bb5780820151818401526020810190506102a0565b50505050905090810190601f1680156102e85780820380516001836020036101000a031916815260200191505b50838103825284818151815260200191508051906020019080838360005b83811015610321578082015181840152602081019050610306565b50505050905090810190601f16801561034e5780820380516001836020036101000a031916815260200191505b509550505050505060405180910390f35b61038b6004803603602081101561037557600080fd5b8101908080359060200190929190505050610a5f565b6040518087815260200186815260200185815260200184815260200180602001838152602001828103825284818151815260200191508051906020019080838360005b838110156103e95780820151818401526020810190506103ce565b50505050905090810190601f1680156104165780820380516001836020036101000a031916815260200191505b5097505050505050505060405180910390f35b610431610b33565b6040518082815260200191505060405180910390f35b6105a16004803603606081101561045d57600080fd5b81019080803590602001909291908035906020019064010000000081111561048457600080fd5b82018360208201111561049657600080fd5b803590602001918460018302840111640100000000831117156104b857600080fd5b91908080601f016020809104026020016040519081016040528093929190818152602001838380828437600081840152601f19601f8201169050808301925050505050505091929192908035906020019064010000000081111561051b57600080fd5b82018360208201111561052d57600080fd5b8035906020019184600183028401116401000000008311171561054f57600080fd5b91908080601f016020809104026020016040519081016040528093929190818152602001838380828437600081840152601f19601f820116905080830192505050505050509192919290505050610b39565b005b610670600480360360608110156105b957600080fd5b8101908080359060200190929190803590602001906401000000008111156105e057600080fd5b8201836020820111156105f257600080fd5b8035906020019184600183028401116401000000008311171561061457600080fd5b91908080601f016020809104026020016040519081016040528093929190818152602001838380828437600081840152601f19601f82011690508083019250505050505050919291929080359060200190929190505050610bc1565b005b61067a610c35565b6040518082815260200191505060405180910390f35b61077b600480360360c08110156106a657600080fd5b8101908080359060200190929190803590602001909291908035906020019092919080359060200190929190803590602001906401000000008111156106eb57600080fd5b8201836020820111156106fd57600080fd5b8035906020019184600183028401116401000000008311171561071f57600080fd5b91908080601f016020809104026020016040519081016040528093929190818152602001838380828437600081840152601f19601f82011690508083019250505050505050919291929080359060200190929190505050610c3b565b005b610785610e2b565b6040518082815260200191505060405180910390f35b6000602052806000526040600020600091509050806000015490806001018054600181600116156101000203166002900480601f01602080910402602001604051908101604052809291908181526020018280546001816001161561010002031660029004801561084d5780601f106108225761010080835404028352916020019161084d565b820191906000526020600020905b81548152906001019060200180831161083057829003601f168201915b5050505050908060020154905083565b6001600354016003819055506040518060c00160405280878152602001868152602001858152602001848152602001838152602001828152506002600060035481526020019081526020016000206000820151816000015560208201518160010155604082015181600201556060820151816003015560808201518160040190805190602001906108ef929190610e31565b5060a08201518160050155905050505050505050565b6001602052806000526040600020600091509050806000015490806001018054600181600116156101000203166002900480601f0160208091040260200160405190810160405280929190818152602001828054600181600116156101000203166002900480156109b75780601f1061098c576101008083540402835291602001916109b7565b820191906000526020600020905b81548152906001019060200180831161099a57829003601f168201915b505050505090806002018054600181600116156101000203166002900480601f016020809104026020016040519081016040528092919081815260200182805460018160011615610100020316600290048015610a555780601f10610a2a57610100808354040283529160200191610a55565b820191906000526020600020905b815481529060010190602001808311610a3857829003601f168201915b5050505050905083565b6002602052806000526040600020600091509050806000015490806001015490806002015490806003015490806004018054600181600116156101000203166002900480601f016020809104026020016040519081016040528092919081815260200182805460018160011615610100020316600290048015610b235780601f10610af857610100808354040283529160200191610b23565b820191906000526020600020905b815481529060010190602001808311610b0657829003601f168201915b5050505050908060050154905086565b60055481565b600160055401600581905550604051806060016040528084815260200183815260200182815250600160006003548152602001908152602001600020600082015181600001556020820151816001019080519060200190610b9b929190610e31565b506040820151816002019080519060200190610bb8929190610e31565b50905050505050565b6001600454016004819055506040518060600160405280848152602001838152602001828152506000806004548152602001908152602001600020600082015181600001556020820151816001019080519060200190610c22929190610e31565b5060408201518160020155905050505050565b60035481565b6001600354016003819055506040518060c00160405280600354815260200186815260200185815260200184815260200183815260200182815250600260006003548152602001908152602001600020600082015181600001556020820151816001015560408201518160020155606082015181600301556080820151816004019080519060200190610ccf929190610e31565b5060a082015181600501559050506002600354868686866040516020018086815260200185815260200184815260200183815260200182805190602001908083835b60208310610d345780518252602082019150602081019050602083039250610d11565b6001836020036101000a038019825116818451168082178552505050505050905001955050505050506040516020818303038152906040526040518082805190602001908083835b60208310610d9f5780518252602082019150602081019050602083039250610d7c565b6001836020036101000a038019825116818451168082178552505050505050905001915050602060405180830381855afa158015610de1573d6000803e3d6000fd5b5050506040513d6020811015610df657600080fd5b810190808051906020019092919050505060026000600354815260200190815260200160002060050181905550505050505050565b60045481565b828054600181600116156101000203166002900490600052602060002090601f016020900481019282601f10610e7257805160ff1916838001178555610ea0565b82800160010185558215610ea0579182015b82811115610e9f578251825591602001919060010190610e84565b5b509050610ead9190610eb1565b5090565b610ed391905b80821115610ecf576000816000905550600101610eb7565b5090565b9056fea165627a7a72305820e30e33d097643a5ddd3d7fd21d4e6db6d27d9f9c2578277b7550f324e62ba8e20029307831336632463033353261613335634446436236433244456542333031373331396238373234303939307838383330366239643531413861646562326433393239363063436663323936414636654239363237",
  "source": "pragma solidity ^0.5.0;\n\ncontract Discount {\n\n  struct Product\n  {\n    int id;\n    string name;\n    int price;\n  }\n  \n  struct Retailer\n  {\n    int id;\n    string name;\n    string retailerAddr;\n  }\n\n  struct DiscountCoupon\n  {\n    int id;\n    int prdId;\n    int retailerId;\n    int discount;\n    string date;\n    bytes32 code;\n  }\n\n  mapping (int=>Product) public product;\n  mapping (int=>Retailer) public retailer;\n  mapping (int=>DiscountCoupon) public couponCode;\n\n  int public couponCount;\n  int public productCount;\n  int public retailerCount;\n\n  constructor() public {\n    couponCount=0;\n    addProduct(1,'Product - 1',10);\n    addProduct(2,'Product - 2',20);\n    addProduct(3,'Product - 3',30);\n    addRetailer(1,'Retailer - 1','0x0');\n    addRetailer(2,'Retailer - 2','0x1');\n    addRetailer(3,'Retailer - 3','0x2');\n    addRetailer(4,'Retailer - 4','0x13f2F0352aa35cDFCb6C2DEeB3017319b8724099');\n    addRetailer(5,'Retailer - 5','0x88306b9d51A8adeb2d392960cCfc296AF6eB9627');\n    addRetailer(6,'Retailer - 6','0x5');\n    addCoupon(1,1,1,10,'2019-02-03','');\n    addCoupon(2,1,2,20,'2019-02-03','');\n    addCoupon(3,1,2,50,'2019-02-03','');\n    addCoupon(4,2,1,30,'2019-02-03','');\n    addCoupon(5,3,2,40,'2019-02-03','');\n    \n  }\n\n  function addProduct(int x,string memory y,int z) public {\n    productCount=productCount+1;\n    product[productCount] = Product(x,y,z);\n  }\n\n  function addRetailer(int x,string memory y,string memory p) public {\n    retailerCount=retailerCount+1;\n    retailer[couponCount] = Retailer(x,y,p);\n  }\n\n  function addCoupon(int x,int y,int z,int q,string memory p,bytes32 r) public {\n    couponCount=couponCount+1;\n    couponCode[couponCount] = DiscountCoupon(x,y,z,q,p,r);\n  }\n\n  function updateCoupon(int x,int y,int z,int q,string memory p,bytes32 r) public {\n    couponCount=couponCount+1;\n    couponCode[couponCount] = DiscountCoupon(couponCount,y,z,q,p,r);\n    couponCode[couponCount].code=sha256(abi.encodePacked(couponCount,y,z,q,p));\n  }\n\n\n}\n",
  "sourcePath": "E:/2customerLoyalty/contracts/Discount.sol",
  "compiler": {
    "name": "solc",
    "version": "0.5.8+commit.23d335f2.Emscripten.clang"
  },
  "schemaVersion": "3.0.11",
  "updatedAt": "2019-10-20T06:52:57.229Z",
  "devdoc": {
    "methods": {}
  },
  "userdoc": {
    "methods": {}
  }
}