{
  "contractName": "Coupon",
  "abi": [
    {
      "constant": true,
      "inputs": [],
      "name": "owner",
      "outputs": [
        {
          "name": "",
          "type": "address"
        }
      ],
      "payable": false,
      "stateMutability": "view",
      "type": "function",
      "signature": "0x8da5cb5b"
    },
    {
      "inputs": [],
      "payable": false,
      "stateMutability": "nonpayable",
      "type": "constructor",
      "signature": "constructor"
    },
    {
      "constant": true,
      "inputs": [
        {
          "name": "x",
          "type": "address"
        }
      ],
      "name": "ifExist",
      "outputs": [
        {
          "name": "",
          "type": "bool"
        }
      ],
      "payable": false,
      "stateMutability": "view",
      "type": "function",
      "signature": "0xe551aa87"
    },
    {
      "constant": false,
      "inputs": [
        {
          "name": "addr",
          "type": "address"
        }
      ],
      "name": "addRetailer",
      "outputs": [
        {
          "name": "",
          "type": "string"
        }
      ],
      "payable": false,
      "stateMutability": "nonpayable",
      "type": "function",
      "signature": "0x8ec4f505"
    },
    {
      "constant": true,
      "inputs": [],
      "name": "retailerOrOwner",
      "outputs": [
        {
          "name": "",
          "type": "address"
        }
      ],
      "payable": false,
      "stateMutability": "view",
      "type": "function",
      "signature": "0xab57c293"
    }
  ],
  "bytecode": "0x608060405234801561001057600080fd5b5033600160006101000a81548173ffffffffffffffffffffffffffffffffffffffff021916908373ffffffffffffffffffffffffffffffffffffffff1602179055506103e2806100616000396000f300608060405260043610610062576000357c0100000000000000000000000000000000000000000000000000000000900463ffffffff1680638da5cb5b146100675780638ec4f505146100be578063ab57c2931461017a578063e551aa87146101d1575b600080fd5b34801561007357600080fd5b5061007c61022c565b604051808273ffffffffffffffffffffffffffffffffffffffff1673ffffffffffffffffffffffffffffffffffffffff16815260200191505060405180910390f35b3480156100ca57600080fd5b506100ff600480360381019080803573ffffffffffffffffffffffffffffffffffffffff169060200190929190505050610252565b6040518080602001828103825283818151815260200191508051906020019080838360005b8381101561013f578082015181840152602081019050610124565b50505050905090810190601f16801561016c5780820380516001836020036101000a031916815260200191505b509250505060405180910390f35b34801561018657600080fd5b5061018f610359565b604051808273ffffffffffffffffffffffffffffffffffffffff1673ffffffffffffffffffffffffffffffffffffffff16815260200191505060405180910390f35b3480156101dd57600080fd5b50610212600480360381019080803573ffffffffffffffffffffffffffffffffffffffff169060200190929190505050610361565b604051808215151515815260200191505060405180910390f35b600160009054906101000a900473ffffffffffffffffffffffffffffffffffffffff1681565b60603373ffffffffffffffffffffffffffffffffffffffff16600160009054906101000a900473ffffffffffffffffffffffffffffffffffffffff1673ffffffffffffffffffffffffffffffffffffffff161415156102b057600080fd5b6102b982610361565b15156103535760016000808473ffffffffffffffffffffffffffffffffffffffff1673ffffffffffffffffffffffffffffffffffffffff16815260200190815260200160002060006101000a81548160ff0219169083151502179055506040805190810160405280600c81526020017f537563636573732e2e21212100000000000000000000000000000000000000008152509050610354565b5b919050565b600033905090565b60008060008373ffffffffffffffffffffffffffffffffffffffff1673ffffffffffffffffffffffffffffffffffffffff16815260200190815260200160002060009054906101000a900460ff1690509190505600a165627a7a72305820d5595bf1d8e0214c25745fe2166a685bab6187b74ede122ff1237db4ff1221ef0029",
  "source": "pragma solidity ^0.4.8;\n\ncontract Coupon {\n\n   \n    mapping(address => bool) retailerExists;\n    address public owner;\n   \n    // Bidding duration in minutes\n    constructor() public {\n        \n        owner=msg.sender;\n\n\n    }\n    \n    modifier onlyOwner()\n    {\n        require(owner==msg.sender);\n        _;\n    }\n    \n    modifier onlyRetailer()\n    {\n        require(ifExist(msg.sender));\n        _;\n    }\n\n\n    function ifExist(address x) public view returns (bool) {\n        return retailerExists[x];\n    }\n    \n    \n    \n    \n    function addRetailer(address addr) onlyOwner public returns (string memory)\n    {\n       if(!(ifExist(addr)))\n       {\n            retailerExists[addr]=true;\n        return(\"Success..!!!\");\n        }\n    }\n\n\n    function retailerOrOwner() public view returns (address)\n    {\n        return msg.sender;\n    }\n\n}\n",
  "sourcePath": "D:/hashCODE/contracts/Coupon.sol",
  "compiler": {
    "name": "solc",
    "version": "0.4.25+commit.59dbf8f1.Emscripten.clang"
  },
  "schemaVersion": "3.0.2",
  "updatedAt": "2019-11-04T10:39:18.013Z",
  "devdoc": {
    "methods": {}
  },
  "userdoc": {
    "methods": {}
  }
}