{
  "contractName": "Discount",
  "abi": [
    {
      "constant": true,
      "inputs": [
        {
          "name": "",
          "type": "int256"
        }
      ],
      "name": "product",
      "outputs": [
        {
          "name": "id",
          "type": "int256"
        },
        {
          "name": "name",
          "type": "string"
        },
        {
          "name": "price",
          "type": "int256"
        }
      ],
      "payable": false,
      "stateMutability": "view",
      "type": "function",
      "signature": "0x09715fb9"
    },
    {
      "constant": true,
      "inputs": [
        {
          "name": "",
          "type": "int256"
        }
      ],
      "name": "retailer",
      "outputs": [
        {
          "name": "id",
          "type": "int256"
        },
        {
          "name": "name",
          "type": "string"
        },
        {
          "name": "retailerAddr",
          "type": "string"
        }
      ],
      "payable": false,
      "stateMutability": "view",
      "type": "function",
      "signature": "0x2b757d69"
    },
    {
      "constant": true,
      "inputs": [
        {
          "name": "",
          "type": "int256"
        }
      ],
      "name": "couponCode",
      "outputs": [
        {
          "name": "id",
          "type": "int256"
        },
        {
          "name": "prdId",
          "type": "int256"
        },
        {
          "name": "retailerId",
          "type": "int256"
        },
        {
          "name": "discount",
          "type": "int256"
        },
        {
          "name": "date",
          "type": "string"
        },
        {
          "name": "code",
          "type": "bytes32"
        }
      ],
      "payable": false,
      "stateMutability": "view",
      "type": "function",
      "signature": "0x4493457c"
    },
    {
      "constant": true,
      "inputs": [],
      "name": "retailerCount",
      "outputs": [
        {
          "name": "",
          "type": "int256"
        }
      ],
      "payable": false,
      "stateMutability": "view",
      "type": "function",
      "signature": "0x47c16a7f"
    },
    {
      "constant": true,
      "inputs": [],
      "name": "couponCount",
      "outputs": [
        {
          "name": "",
          "type": "int256"
        }
      ],
      "payable": false,
      "stateMutability": "view",
      "type": "function",
      "signature": "0xd0e23923"
    },
    {
      "constant": true,
      "inputs": [],
      "name": "productCount",
      "outputs": [
        {
          "name": "",
          "type": "int256"
        }
      ],
      "payable": false,
      "stateMutability": "view",
      "type": "function",
      "signature": "0xe0f6ef87"
    },
    {
      "inputs": [],
      "payable": false,
      "stateMutability": "nonpayable",
      "type": "constructor",
      "signature": "constructor"
    },
    {
      "constant": false,
      "inputs": [
        {
          "name": "x",
          "type": "int256"
        },
        {
          "name": "y",
          "type": "string"
        },
        {
          "name": "z",
          "type": "int256"
        }
      ],
      "name": "addProduct",
      "outputs": [],
      "payable": false,
      "stateMutability": "nonpayable",
      "type": "function",
      "signature": "0x99eeae47"
    },
    {
      "constant": false,
      "inputs": [
        {
          "name": "x",
          "type": "int256"
        },
        {
          "name": "y",
          "type": "string"
        },
        {
          "name": "p",
          "type": "string"
        }
      ],
      "name": "addRetailer",
      "outputs": [],
      "payable": false,
      "stateMutability": "nonpayable",
      "type": "function",
      "signature": "0x8e7adbc8"
    },
    {
      "constant": false,
      "inputs": [
        {
          "name": "x",
          "type": "int256"
        },
        {
          "name": "y",
          "type": "int256"
        },
        {
          "name": "z",
          "type": "int256"
        },
        {
          "name": "q",
          "type": "int256"
        },
        {
          "name": "p",
          "type": "string"
        },
        {
          "name": "r",
          "type": "bytes32"
        }
      ],
      "name": "addCoupon",
      "outputs": [],
      "payable": false,
      "stateMutability": "nonpayable",
      "type": "function",
      "signature": "0x15200e0b"
    },
    {
      "constant": false,
      "inputs": [
        {
          "name": "x",
          "type": "int256"
        },
        {
          "name": "y",
          "type": "int256"
        },
        {
          "name": "z",
          "type": "int256"
        },
        {
          "name": "q",
          "type": "int256"
        },
        {
          "name": "p",
          "type": "string"
        },
        {
          "name": "r",
          "type": "bytes32"
        }
      ],
      "name": "updateCoupon",
      "outputs": [],
      "payable": false,
      "stateMutability": "nonpayable",
      "type": "function",
      "signature": "0xddecadc4"
    }
  ],
  "bytecode": "0x60806040523480156200001157600080fd5b5060006003819055506200006d60016040805190810160405280600b81526020017f50726f64756374202d20310000000000000000000000000000000000000000008152506000620005ff640100000000026401000000009004565b620000c060026040805190810160405280600b81526020017f50726f64756374202d20320000000000000000000000000000000000000000008152506000620005ff640100000000026401000000009004565b6200011360036040805190810160405280600b81526020017f50726f64756374202d20330000000000000000000000000000000000000000008152506000620005ff640100000000026401000000009004565b6200019a60016040805190810160405280600c81526020017f52657461696c6572202d203100000000000000000000000000000000000000008152506040805190810160405280600381526020017f307830000000000000000000000000000000000000000000000000000000000081525062000676640100000000026401000000009004565b6200022160026040805190810160405280600c81526020017f52657461696c6572202d203200000000000000000000000000000000000000008152506040805190810160405280600381526020017f307831000000000000000000000000000000000000000000000000000000000081525062000676640100000000026401000000009004565b620002a860036040805190810160405280600c81526020017f52657461696c6572202d203300000000000000000000000000000000000000008152506040805190810160405280600381526020017f307832000000000000000000000000000000000000000000000000000000000081525062000676640100000000026401000000009004565b6200032f60046040805190810160405280600c81526020017f52657461696c6572202d203400000000000000000000000000000000000000008152506040805190810160405280600381526020017f307833000000000000000000000000000000000000000000000000000000000081525062000676640100000000026401000000009004565b620003b660056040805190810160405280600c81526020017f52657461696c6572202d203500000000000000000000000000000000000000008152506040805190810160405280600381526020017f307834000000000000000000000000000000000000000000000000000000000081525062000676640100000000026401000000009004565b6200043d60066040805190810160405280600c81526020017f52657461696c6572202d203600000000000000000000000000000000000000008152506040805190810160405280600381526020017f307835000000000000000000000000000000000000000000000000000000000081525062000676640100000000026401000000009004565b620004956001806001600a6040805190810160405280600a81526020017f323031392d30322d303300000000000000000000000000000000000000000000815250600062000703640100000000026401000000009004565b620004ee60026001600260146040805190810160405280600a81526020017f323031392d30322d303300000000000000000000000000000000000000000000815250600062000703640100000000026401000000009004565b6200054760036001600260326040805190810160405280600a81526020017f323031392d30322d303300000000000000000000000000000000000000000000815250600062000703640100000000026401000000009004565b620005a0600460026001601e6040805190810160405280600a81526020017f323031392d30322d303300000000000000000000000000000000000000000000815250600062000703640100000000026401000000009004565b620005f960056003600260286040805190810160405280600a81526020017f323031392d30322d303300000000000000000000000000000000000000000000815250600062000703640100000000026401000000009004565b6200085d565b60016004540160048190555060606040519081016040528084815260200183815260200182815250600080600454815260200190815260200160002060008201518160000155602082015181600101908051906020019062000663929190620007ae565b5060408201518160020155905050505050565b60016005540160058190555060606040519081016040528084815260200183815260200182815250600160006003548152602001908152602001600020600082015181600001556020820151816001019080519060200190620006db929190620007ae565b506040820151816002019080519060200190620006fa929190620007ae565b50905050505050565b60016003540160038190555060c0604051908101604052808781526020018681526020018581526020018481526020018381526020018281525060026000600354815260200190815260200160002060008201518160000155602082015181600101556040820151816002015560608201518160030155608082015181600401908051906020019062000798929190620007ae565b5060a08201518160050155905050505050505050565b828054600181600116156101000203166002900490600052602060002090601f016020900481019282601f10620007f157805160ff191683800117855562000822565b8280016001018555821562000822579182015b828111156200082157825182559160200191906001019062000804565b5b50905062000831919062000835565b5090565b6200085a91905b80821115620008565760008160009055506001016200083c565b5090565b90565b610f92806200086d6000396000f3fe6080604052600436106100a4576000357c0100000000000000000000000000000000000000000000000000000000900463ffffffff16806309715fb9146100a957806315200e0b1461016b5780632b757d69146102655780634493457c1461038c57806347c16a7f146104635780638e7adbc81461048e57806399eeae47146105f7578063d0e23923146106d3578063ddecadc4146106fe578063e0f6ef87146107f8575b600080fd5b3480156100b557600080fd5b506100e2600480360360208110156100cc57600080fd5b8101908080359060200190929190505050610823565b6040518084815260200180602001838152602001828103825284818151815260200191508051906020019080838360005b8381101561012e578082015181840152602081019050610113565b50505050905090810190601f16801561015b5780820380516001836020036101000a031916815260200191505b5094505050505060405180910390f35b34801561017757600080fd5b50610263600480360360c081101561018e57600080fd5b8101908080359060200190929190803590602001909291908035906020019092919080359060200190929190803590602001906401000000008111156101d357600080fd5b8201836020820111156101e557600080fd5b8035906020019184600183028401116401000000008311171561020757600080fd5b91908080601f016020809104026020016040519081016040528093929190818152602001838380828437600081840152601f19601f820116905080830192505050505050509192919290803590602001909291905050506108e5565b005b34801561027157600080fd5b5061029e6004803603602081101561028857600080fd5b810190808035906020019092919050505061098e565b604051808481526020018060200180602001838103835285818151815260200191508051906020019080838360005b838110156102e85780820151818401526020810190506102cd565b50505050905090810190601f1680156103155780820380516001836020036101000a031916815260200191505b50838103825284818151815260200191508051906020019080838360005b8381101561034e578082015181840152602081019050610333565b50505050905090810190601f16801561037b5780820380516001836020036101000a031916815260200191505b509550505050505060405180910390f35b34801561039857600080fd5b506103c5600480360360208110156103af57600080fd5b8101908080359060200190929190505050610ae8565b6040518087815260200186815260200185815260200184815260200180602001838152602001828103825284818151815260200191508051906020019080838360005b83811015610423578082015181840152602081019050610408565b50505050905090810190601f1680156104505780820380516001836020036101000a031916815260200191505b5097505050505050505060405180910390f35b34801561046f57600080fd5b50610478610bbc565b6040518082815260200191505060405180910390f35b34801561049a57600080fd5b506105f5600480360360608110156104b157600080fd5b8101908080359060200190929190803590602001906401000000008111156104d857600080fd5b8201836020820111156104ea57600080fd5b8035906020019184600183028401116401000000008311171561050c57600080fd5b91908080601f016020809104026020016040519081016040528093929190818152602001838380828437600081840152601f19601f8201169050808301925050505050505091929192908035906020019064010000000081111561056f57600080fd5b82018360208201111561058157600080fd5b803590602001918460018302840111640100000000831117156105a357600080fd5b91908080601f016020809104026020016040519081016040528093929190818152602001838380828437600081840152601f19601f820116905080830192505050505050509192919290505050610bc2565b005b34801561060357600080fd5b506106d16004803603606081101561061a57600080fd5b81019080803590602001909291908035906020019064010000000081111561064157600080fd5b82018360208201111561065357600080fd5b8035906020019184600183028401116401000000008311171561067557600080fd5b91908080601f016020809104026020016040519081016040528093929190818152602001838380828437600081840152601f19601f82011690508083019250505050505050919291929080359060200190929190505050610c4b565b005b3480156106df57600080fd5b506106e8610cc0565b6040518082815260200191505060405180910390f35b34801561070a57600080fd5b506107f6600480360360c081101561072157600080fd5b81019080803590602001909291908035906020019092919080359060200190929190803590602001909291908035906020019064010000000081111561076657600080fd5b82018360208201111561077857600080fd5b8035906020019184600183028401116401000000008311171561079a57600080fd5b91908080601f016020809104026020016040519081016040528093929190818152602001838380828437600081840152601f19601f82011690508083019250505050505050919291929080359060200190929190505050610cc6565b005b34801561080457600080fd5b5061080d610ebb565b6040518082815260200191505060405180910390f35b6000602052806000526040600020600091509050806000015490806001018054600181600116156101000203166002900480601f0160208091040260200160405190810160405280929190818152602001828054600181600116156101000203166002900480156108d55780601f106108aa576101008083540402835291602001916108d5565b820191906000526020600020905b8154815290600101906020018083116108b857829003601f168201915b5050505050908060020154905083565b60016003540160038190555060c06040519081016040528087815260200186815260200185815260200184815260200183815260200182815250600260006003548152602001908152602001600020600082015181600001556020820151816001015560408201518160020155606082015181600301556080820151816004019080519060200190610978929190610ec1565b5060a08201518160050155905050505050505050565b6001602052806000526040600020600091509050806000015490806001018054600181600116156101000203166002900480601f016020809104026020016040519081016040528092919081815260200182805460018160011615610100020316600290048015610a405780601f10610a1557610100808354040283529160200191610a40565b820191906000526020600020905b815481529060010190602001808311610a2357829003601f168201915b505050505090806002018054600181600116156101000203166002900480601f016020809104026020016040519081016040528092919081815260200182805460018160011615610100020316600290048015610ade5780601f10610ab357610100808354040283529160200191610ade565b820191906000526020600020905b815481529060010190602001808311610ac157829003601f168201915b5050505050905083565b6002602052806000526040600020600091509050806000015490806001015490806002015490806003015490806004018054600181600116156101000203166002900480601f016020809104026020016040519081016040528092919081815260200182805460018160011615610100020316600290048015610bac5780601f10610b8157610100808354040283529160200191610bac565b820191906000526020600020905b815481529060010190602001808311610b8f57829003601f168201915b5050505050908060050154905086565b60055481565b60016005540160058190555060606040519081016040528084815260200183815260200182815250600160006003548152602001908152602001600020600082015181600001556020820151816001019080519060200190610c25929190610ec1565b506040820151816002019080519060200190610c42929190610ec1565b50905050505050565b600160045401600481905550606060405190810160405280848152602001838152602001828152506000806004548152602001908152602001600020600082015181600001556020820151816001019080519060200190610cad929190610ec1565b5060408201518160020155905050505050565b60035481565b60016003540160038190555060c060405190810160405280600354815260200186815260200185815260200184815260200183815260200182815250600260006003548152602001908152602001600020600082015181600001556020820151816001015560408201518160020155606082015181600301556080820151816004019080519060200190610d5b929190610ec1565b5060a082015181600501559050506002600354868686866040516020018086815260200185815260200184815260200183815260200182805190602001908083835b602083101515610dc25780518252602082019150602081019050602083039250610d9d565b6001836020036101000a038019825116818451168082178552505050505050905001955050505050506040516020818303038152906040526040518082805190602001908083835b602083101515610e2f5780518252602082019150602081019050602083039250610e0a565b6001836020036101000a038019825116818451168082178552505050505050905001915050602060405180830381855afa158015610e71573d6000803e3d6000fd5b5050506040513d6020811015610e8657600080fd5b810190808051906020019092919050505060026000600354815260200190815260200160002060050181905550505050505050565b60045481565b828054600181600116156101000203166002900490600052602060002090601f016020900481019282601f10610f0257805160ff1916838001178555610f30565b82800160010185558215610f30579182015b82811115610f2f578251825591602001919060010190610f14565b5b509050610f3d9190610f41565b5090565b610f6391905b80821115610f5f576000816000905550600101610f47565b5090565b9056fea165627a7a72305820b0ad0cf75731c4b37fd462fca1d3958ac9978fe2460baaf48e217ce8d0fd22ea0029",
  "source": "pragma solidity ^0.5.0;\n\ncontract Discount {\n\n  struct Product\n  {\n    int id;\n    string name;\n    int price;\n  }\n  struct Retailer\n  {\n    int id;\n    string name;\n    string retailerAddr;\n  }\n  struct DiscountCoupon\n  {\n    int id;\n    int prdId;\n    int retailerId;\n    int discount;\n    string date;\n    bytes32 code;\n  }\n\n  mapping (int=>Product) public product;\n  mapping (int=>Retailer) public retailer;\n  mapping (int=>DiscountCoupon) public couponCode;\n\n  int public couponCount;\n  int public productCount;\n  int public retailerCount;\n\n  constructor() public {\n    couponCount=0;\n    addProduct(1,'Product - 1',0);\n    addProduct(2,'Product - 2',0);\n    addProduct(3,'Product - 3',0);\n    addRetailer(1,'Retailer - 1','0x0');\n    addRetailer(2,'Retailer - 2','0x1');\n    addRetailer(3,'Retailer - 3','0x2');\n    addRetailer(4,'Retailer - 4','0x3');\n    addRetailer(5,'Retailer - 5','0x4');\n    addRetailer(6,'Retailer - 6','0x5');\n    addCoupon(1,1,1,10,'2019-02-03','');\n    addCoupon(2,1,2,20,'2019-02-03','');\n    addCoupon(3,1,2,50,'2019-02-03','');\n    addCoupon(4,2,1,30,'2019-02-03','');\n    addCoupon(5,3,2,40,'2019-02-03','');\n    \n  }\n\n  function addProduct(int x,string memory y,int z) public {\n    productCount=productCount+1;\n    product[productCount] = Product(x,y,z);\n  }\n\n  function addRetailer(int x,string memory y,string memory p) public {\n    retailerCount=retailerCount+1;\n    retailer[couponCount] = Retailer(x,y,p);\n  }\n\n  function addCoupon(int x,int y,int z,int q,string memory p,bytes32 r) public {\n    couponCount=couponCount+1;\n    couponCode[couponCount] = DiscountCoupon(x,y,z,q,p,r);\n  }\n\n  function updateCoupon(int x,int y,int z,int q,string memory p,bytes32 r) public {\n    couponCount=couponCount+1;\n    couponCode[couponCount] = DiscountCoupon(couponCount,y,z,q,p,r);\n    couponCode[couponCount].code=sha256(abi.encodePacked(couponCount,y,z,q,p));\n  }\n\n\n}\n",
  "sourcePath": "E:/customerLoyalty/contracts/Discount.sol",
  "compiler": {
    "name": "solc",
    "version": "0.5.0+commit.1d4f565a.Emscripten.clang"
  },
  "schemaVersion": "3.0.2",
  "updatedAt": "2019-08-22T05:06:23.602Z",
  "devdoc": {
    "methods": {}
  },
  "userdoc": {
    "methods": {}
  }
}