{
  "contractName": "Coupon",
  "abi": [
    {
      "constant": true,
      "inputs": [
        {
          "name": "",
          "type": "uint256"
        }
      ],
      "name": "hashCoupon",
      "outputs": [
        {
          "name": "",
          "type": "bytes32"
        }
      ],
      "payable": false,
      "stateMutability": "view",
      "type": "function",
      "signature": "0x088942d3"
    },
    {
      "constant": true,
      "inputs": [],
      "name": "indexCount",
      "outputs": [
        {
          "name": "",
          "type": "uint256"
        }
      ],
      "payable": false,
      "stateMutability": "view",
      "type": "function",
      "signature": "0x19a0bc4a"
    },
    {
      "constant": true,
      "inputs": [
        {
          "name": "",
          "type": "bytes32"
        }
      ],
      "name": "couponCheck",
      "outputs": [
        {
          "name": "",
          "type": "bool"
        }
      ],
      "payable": false,
      "stateMutability": "view",
      "type": "function",
      "signature": "0x21764cc7"
    },
    {
      "constant": true,
      "inputs": [
        {
          "name": "",
          "type": "bytes32"
        }
      ],
      "name": "coupon",
      "outputs": [
        {
          "name": "retailerAddr",
          "type": "address"
        },
        {
          "name": "date",
          "type": "uint256"
        },
        {
          "name": "product",
          "type": "string"
        },
        {
          "name": "price",
          "type": "uint256"
        },
        {
          "name": "disc",
          "type": "uint256"
        },
        {
          "name": "exist",
          "type": "bool"
        }
      ],
      "payable": false,
      "stateMutability": "view",
      "type": "function",
      "signature": "0x36f72e01"
    },
    {
      "constant": true,
      "inputs": [],
      "name": "owner",
      "outputs": [
        {
          "name": "",
          "type": "address"
        }
      ],
      "payable": false,
      "stateMutability": "view",
      "type": "function",
      "signature": "0x8da5cb5b"
    },
    {
      "constant": true,
      "inputs": [
        {
          "name": "",
          "type": "address"
        }
      ],
      "name": "retailer",
      "outputs": [
        {
          "name": "name",
          "type": "string"
        },
        {
          "name": "loc",
          "type": "string"
        }
      ],
      "payable": false,
      "stateMutability": "view",
      "type": "function",
      "signature": "0x9915648a"
    },
    {
      "inputs": [],
      "payable": false,
      "stateMutability": "nonpayable",
      "type": "constructor",
      "signature": "constructor"
    },
    {
      "constant": true,
      "inputs": [
        {
          "name": "x",
          "type": "address"
        }
      ],
      "name": "ifExist",
      "outputs": [
        {
          "name": "",
          "type": "bool"
        }
      ],
      "payable": false,
      "stateMutability": "view",
      "type": "function",
      "signature": "0xe551aa87"
    },
    {
      "constant": false,
      "inputs": [
        {
          "name": "x",
          "type": "bytes32"
        }
      ],
      "name": "redeem",
      "outputs": [],
      "payable": false,
      "stateMutability": "nonpayable",
      "type": "function",
      "signature": "0xeda1122c"
    },
    {
      "constant": false,
      "inputs": [
        {
          "name": "x1",
          "type": "string"
        },
        {
          "name": "x2",
          "type": "string"
        }
      ],
      "name": "addRetailer",
      "outputs": [
        {
          "name": "",
          "type": "string"
        }
      ],
      "payable": false,
      "stateMutability": "nonpayable",
      "type": "function",
      "signature": "0xc0ce26d6"
    },
    {
      "constant": true,
      "inputs": [],
      "name": "getHash",
      "outputs": [
        {
          "name": "",
          "type": "bytes32"
        }
      ],
      "payable": false,
      "stateMutability": "view",
      "type": "function",
      "signature": "0xd13319c4"
    },
    {
      "constant": true,
      "inputs": [],
      "name": "retailerClick",
      "outputs": [
        {
          "name": "",
          "type": "string"
        }
      ],
      "payable": false,
      "stateMutability": "view",
      "type": "function",
      "signature": "0x1a7a6ac1"
    },
    {
      "constant": false,
      "inputs": [
        {
          "name": "x1",
          "type": "string"
        },
        {
          "name": "x2",
          "type": "uint256"
        },
        {
          "name": "x3",
          "type": "uint256"
        }
      ],
      "name": "addCoupon",
      "outputs": [
        {
          "name": "",
          "type": "bytes32"
        }
      ],
      "payable": false,
      "stateMutability": "nonpayable",
      "type": "function",
      "signature": "0x30612907"
    },
    {
      "constant": false,
      "inputs": [
        {
          "name": "x1",
          "type": "string"
        },
        {
          "name": "x2",
          "type": "uint256"
        }
      ],
      "name": "addProduct",
      "outputs": [
        {
          "name": "",
          "type": "string"
        }
      ],
      "payable": false,
      "stateMutability": "nonpayable",
      "type": "function",
      "signature": "0xb15247d9"
    },
    {
      "constant": true,
      "inputs": [],
      "name": "retailerOrOwner",
      "outputs": [
        {
          "name": "",
          "type": "address"
        }
      ],
      "payable": false,
      "stateMutability": "view",
      "type": "function",
      "signature": "0xab57c293"
    }
  ],
  "bytecode": "0x608060405234801561001057600080fd5b5033600560006101000a81548173ffffffffffffffffffffffffffffffffffffffff021916908373ffffffffffffffffffffffffffffffffffffffff160217905550611247806100616000396000f3006080604052600436106100d0576000357c0100000000000000000000000000000000000000000000000000000000900463ffffffff168063088942d3146100d557806319a0bc4a1461011e5780631a7a6ac11461014957806321764cc7146101d9578063306129071461022257806336f72e01146102bb5780638da5cb5b146103b85780639915648a1461040f578063ab57c29314610537578063b15247d91461058e578063c0ce26d61461067a578063d13319c4146107a2578063e551aa87146107d5578063eda1122c14610830575b600080fd5b3480156100e157600080fd5b5061010060048036038101908080359060200190929190505050610861565b60405180826000191660001916815260200191505060405180910390f35b34801561012a57600080fd5b50610133610879565b6040518082815260200191505060405180910390f35b34801561015557600080fd5b5061015e61087f565b6040518080602001828103825283818151815260200191508051906020019080838360005b8381101561019e578082015181840152602081019050610183565b50505050905090810190601f1680156101cb5780820380516001836020036101000a031916815260200191505b509250505060405180910390f35b3480156101e557600080fd5b5061020860048036038101908080356000191690602001909291905050506109a1565b604051808215151515815260200191505060405180910390f35b34801561022e57600080fd5b5061029d600480360381019080803590602001908201803590602001908080601f016020809104026020016040519081016040528093929190818152602001838380828437820191505050505050919291929080359060200190929190803590602001909291905050506109c1565b60405180826000191660001916815260200191505060405180910390f35b3480156102c757600080fd5b506102ea6004803603810190808035600019169060200190929190505050610ca3565b604051808773ffffffffffffffffffffffffffffffffffffffff1673ffffffffffffffffffffffffffffffffffffffff1681526020018681526020018060200185815260200184815260200183151515158152602001828103825286818151815260200191508051906020019080838360005b8381101561037857808201518184015260208101905061035d565b50505050905090810190601f1680156103a55780820380516001836020036101000a031916815260200191505b5097505050505050505060405180910390f35b3480156103c457600080fd5b506103cd610da4565b604051808273ffffffffffffffffffffffffffffffffffffffff1673ffffffffffffffffffffffffffffffffffffffff16815260200191505060405180910390f35b34801561041b57600080fd5b50610450600480360381019080803573ffffffffffffffffffffffffffffffffffffffff169060200190929190505050610dca565b604051808060200180602001838103835285818151815260200191508051906020019080838360005b83811015610494578082015181840152602081019050610479565b50505050905090810190601f1680156104c15780820380516001836020036101000a031916815260200191505b50838103825284818151815260200191508051906020019080838360005b838110156104fa5780820151818401526020810190506104df565b50505050905090810190601f1680156105275780820380516001836020036101000a031916815260200191505b5094505050505060405180910390f35b34801561054357600080fd5b5061054c610f1e565b604051808273ffffffffffffffffffffffffffffffffffffffff1673ffffffffffffffffffffffffffffffffffffffff16815260200191505060405180910390f35b34801561059a57600080fd5b506105ff600480360381019080803590602001908201803590602001908080601f016020809104026020016040519081016040528093929190818152602001838380828437820191505050505050919291929080359060200190929190505050610f26565b6040518080602001828103825283818151815260200191508051906020019080838360005b8381101561063f578082015181840152602081019050610624565b50505050905090810190601f16801561066c5780820380516001836020036101000a031916815260200191505b509250505060405180910390f35b34801561068657600080fd5b50610727600480360381019080803590602001908201803590602001908080601f0160208091040260200160405190810160405280939291908181526020018383808284378201915050505050509192919290803590602001908201803590602001908080601f0160208091040260200160405190810160405280939291908181526020018383808284378201915050505050509192919290505050610f86565b6040518080602001828103825283818151815260200191508051906020019080838360005b8381101561076757808201518184015260208101905061074c565b50505050905090810190601f1680156107945780820380516001836020036101000a031916815260200191505b509250505060405180910390f35b3480156107ae57600080fd5b506107b7611094565b60405180826000191660001916815260200191505060405180910390f35b3480156107e157600080fd5b50610816600480360381019080803573ffffffffffffffffffffffffffffffffffffffff1690602001909291905050506110b1565b604051808215151515815260200191505060405180910390f35b34801561083c57600080fd5b5061085f6004803603810190808035600019169060200190929190505050611107565b005b60046020528060005260406000206000915090505481565b60065481565b606060011515600360003373ffffffffffffffffffffffffffffffffffffffff1673ffffffffffffffffffffffffffffffffffffffff16815260200190815260200160002060009054906101000a900460ff161515141561093e57606060405190810160405280602181526020017f687474703a2f2f6c6f63616c686f73743a333030302f61646d696e312e68746d81526020017f6c00000000000000000000000000000000000000000000000000000000000000815250905061099e565b606060405190810160405280602381526020017f687474703a2f2f6c6f63616c686f73743a333030302f72656769737465722e6881526020017f746d6c000000000000000000000000000000000000000000000000000000000081525090505b90565b60016020528060005260406000206000915054906101000a900460ff1681565b600080600360003373ffffffffffffffffffffffffffffffffffffffff1673ffffffffffffffffffffffffffffffffffffffff16815260200190815260200160002060009054906101000a900460ff161515610a1c57600080fd5b6002858585426040516020018085805190602001908083835b602083101515610a5a5780518252602082019150602081019050602083039250610a35565b6001836020036101000a0380198251168184511680821785525050505050509050018481526020018381526020018281526020019450505050506040516020818303038152906040526040518082805190602001908083835b602083101515610ad85780518252602082019150602081019050602083039250610ab3565b6001836020036101000a0380198251168184511680821785525050505050509050019150506020604051808303816000865af1158015610b1c573d6000803e3d6000fd5b5050506040513d6020811015610b3157600080fd5b810190808051906020019092919050505090506001600080836000191660001916815260200190815260200160002060050160006101000a81548160ff02191690831515021790555060016006540160068190555080600460006006548152602001908152602001600020816000191690555033600080836000191660001916815260200190815260200160002060000160006101000a81548173ffffffffffffffffffffffffffffffffffffffff021916908373ffffffffffffffffffffffffffffffffffffffff160217905550426000808360001916600019168152602001908152602001600020600101819055508460008083600019166000191681526020019081526020016000206002019080519060200190610c53929190611176565b508360008083600019166000191681526020019081526020016000206003018190555082600080836000191660001916815260200190815260200160002060040181905550809150509392505050565b60006020528060005260406000206000915090508060000160009054906101000a900473ffffffffffffffffffffffffffffffffffffffff1690806001015490806002018054600181600116156101000203166002900480601f016020809104026020016040519081016040528092919081815260200182805460018160011615610100020316600290048015610d7b5780601f10610d5057610100808354040283529160200191610d7b565b820191906000526020600020905b815481529060010190602001808311610d5e57829003601f168201915b5050505050908060030154908060040154908060050160009054906101000a900460ff16905086565b600560009054906101000a900473ffffffffffffffffffffffffffffffffffffffff1681565b6002602052806000526040600020600091509050806000018054600181600116156101000203166002900480601f016020809104026020016040519081016040528092919081815260200182805460018160011615610100020316600290048015610e765780601f10610e4b57610100808354040283529160200191610e76565b820191906000526020600020905b815481529060010190602001808311610e5957829003601f168201915b505050505090806001018054600181600116156101000203166002900480601f016020809104026020016040519081016040528092919081815260200182805460018160011615610100020316600290048015610f145780601f10610ee957610100808354040283529160200191610f14565b820191906000526020600020905b815481529060010190602001808311610ef757829003601f168201915b5050505050905082565b600033905090565b6060600360003373ffffffffffffffffffffffffffffffffffffffff1673ffffffffffffffffffffffffffffffffffffffff16815260200190815260200160002060009054906101000a900460ff161515610f8057600080fd5b92915050565b606082600260003373ffffffffffffffffffffffffffffffffffffffff1673ffffffffffffffffffffffffffffffffffffffff1681526020019081526020016000206000019080519060200190610fde929190611176565b506001600360003373ffffffffffffffffffffffffffffffffffffffff1673ffffffffffffffffffffffffffffffffffffffff16815260200190815260200160002060006101000a81548160ff02191690831515021790555081600260003373ffffffffffffffffffffffffffffffffffffffff1673ffffffffffffffffffffffffffffffffffffffff168152602001908152602001600020600101908051906020019061108d929190611176565b5092915050565b600060046000600654815260200190815260200160002054905090565b6000600360008373ffffffffffffffffffffffffffffffffffffffff1673ffffffffffffffffffffffffffffffffffffffff16815260200190815260200160002060009054906101000a900460ff169050919050565b600080826000191660001916815260200190815260200160002060050160009054906101000a900460ff16151561113d57600080fd5b6000806000836000191660001916815260200190815260200160002060050160006101000a81548160ff02191690831515021790555050565b828054600181600116156101000203166002900490600052602060002090601f016020900481019282601f106111b757805160ff19168380011785556111e5565b828001600101855582156111e5579182015b828111156111e45782518255916020019190600101906111c9565b5b5090506111f291906111f6565b5090565b61121891905b808211156112145760008160009055506001016111fc565b5090565b905600a165627a7a72305820fdf812dbecd35d3be7623c2711d306b6eb56c8399cdb134048e1b0195eb2f97f0029",
  "source": "pragma solidity ^0.4.8;\n\ncontract Coupon {\n\n\n\n    struct Retailer\n    {\n        string name;\n        string loc;\n    }\n\n\n\n    struct DiscCoupon\n    {\n        address retailerAddr;\n        uint256 date;\n        string product;\n        uint price;\n        uint disc;\n        bool exist;\n    }\n\n    mapping(bytes32 => DiscCoupon) public coupon;\n    mapping(bytes32 => bool) public couponCheck;\n    mapping(address => Retailer) public retailer;\n    mapping(address => bool) retailerExists;\n    mapping(uint => bytes32) public hashCoupon;\n    address public owner;\n    uint public indexCount;\n    // Bidding duration in minutes\n    constructor() public {\n        \n        owner=msg.sender;\n\n\n    }\n    \n    modifier onlyOwner()\n    {\n        require(owner==msg.sender);\n        _;\n    }\n    \n    modifier onlyRetailer()\n    {\n        require(retailerExists[msg.sender]);\n        _;\n    }\n\n\n    function ifExist(address x) public view returns (bool) {\n        return retailerExists[x];\n    }\n\n        \n    \n    function redeem(bytes32 x)\n    {\n        require(coupon[x].exist);\n        coupon[x].exist=false;\n    }\n    \n    function addRetailer(string memory x1,string memory x2) public returns (string memory)\n    {\n       retailer[msg.sender].name=x1;\n       retailerExists[msg.sender]=true;\n       retailer[msg.sender].loc=x2;\n    }\n\n    function getHash() view public returns (bytes32)\n    {\n        return(hashCoupon[indexCount]);\n    }\n\n    function retailerClick() public view returns (string memory)\n    {\n       if(retailerExists[msg.sender]==true)\n       {\n        return(\"http://localhost:3000/admin1.html\");\n        }\n        else{\n            return(\"http://localhost:3000/register.html\");\n        }\n\n    }\n\n\n\n    function addCoupon(string memory x1,uint x2,uint x3)  public onlyRetailer returns (bytes32)\n    {\n\n           bytes32 x= sha256(abi.encodePacked(x1,x2,x3,now));\n           coupon[x].exist=true;\n           indexCount=indexCount+1;\n           hashCoupon[indexCount]=x;\n           coupon[x].retailerAddr=msg.sender;\n           coupon[x].date=now;\n           coupon[x].product=x1;\n           coupon[x].price=x2;\n           coupon[x].disc=x3;      \n       \n       return(x);\n    }\n\n    function addProduct(string memory x1,uint x2)  public onlyRetailer returns (string memory)\n    {\n     /*   uint x=prod[msg.sender].prd.length;\n        prod[msg.sender].prd[x]=x1;\n        prod[msg.sender].price[x]=x2;\n        return(\"1\");\n       */ \n    }\n\n\n    function retailerOrOwner() public view returns (address)\n    {\n        return msg.sender;\n    }\n\n}\n",
  "sourcePath": "D:/hashCODE/contracts/Coupon.sol",
  "compiler": {
    "name": "solc",
    "version": "0.4.25+commit.59dbf8f1.Emscripten.clang"
  },
  "schemaVersion": "3.0.2",
  "updatedAt": "2019-11-26T00:45:55.198Z",
  "devdoc": {
    "methods": {}
  },
  "userdoc": {
    "methods": {}
  }
}