{
  "contractName": "Election",
  "abi": [
    {
      "constant": true,
      "inputs": [],
      "name": "x",
      "outputs": [
        {
          "name": "",
          "type": "int256"
        }
      ],
      "payable": false,
      "stateMutability": "view",
      "type": "function"
    },
    {
      "inputs": [],
      "payable": false,
      "stateMutability": "nonpayable",
      "type": "constructor"
    },
    {
      "constant": false,
      "inputs": [],
      "name": "add",
      "outputs": [],
      "payable": false,
      "stateMutability": "nonpayable",
      "type": "function"
    }
  ],
  "bytecode": "0x608060405234801561001057600080fd5b506000808190555061002661002b60201b60201c565b610039565b600160005401600081905550565b609b806100476000396000f3fe6080604052348015600f57600080fd5b506004361060325760003560e01c80630c55699c1460375780634f2be91f146053575b600080fd5b603d605b565b6040518082815260200191505060405180910390f35b60596061565b005b60005481565b60016000540160008190555056fea165627a7a72305820a8c80e4da7ad814c9f945b2736f1884aa7a64e1b8103316e219e62d47b01b24a0029",
  "source": "pragma solidity ^0.5.0;\n\ncontract Election {\n\n   \n    int public x;\n   \n    constructor () public {\n  \n        x=0;\n        add();\n    }\n\n    function add() public\n    {\n        x=x+1;\n      \n    }\n\n   \n}\n",
  "sourcePath": "/home/puthusseri/CustomerLoyality/contracts/Election.sol",
  "compiler": {
    "name": "solc",
    "version": "0.5.8+commit.23d335f2.Emscripten.clang"
  },
  "schemaVersion": "3.0.11",
  "updatedAt": "2019-08-14T17:41:12.142Z",
  "devdoc": {
    "methods": {}
  },
  "userdoc": {
    "methods": {}
  }
}