{
  "contractName": "Election",
  "abi": [
    {
      "constant": true,
      "inputs": [],
      "name": "x",
      "outputs": [
        {
          "name": "",
          "type": "int256"
        }
      ],
      "payable": false,
      "stateMutability": "view",
      "type": "function",
      "signature": "0x0c55699c"
    },
    {
      "constant": true,
      "inputs": [
        {
          "name": "",
          "type": "int256"
        }
      ],
      "name": "products",
      "outputs": [
        {
          "name": "id",
          "type": "int256"
        },
        {
          "name": "name",
          "type": "string"
        },
        {
          "name": "discount",
          "type": "int256"
        }
      ],
      "payable": false,
      "stateMutability": "view",
      "type": "function",
      "signature": "0x2b346423"
    },
    {
      "inputs": [],
      "payable": false,
      "stateMutability": "nonpayable",
      "type": "constructor",
      "signature": "constructor"
    },
    {
      "constant": false,
      "inputs": [],
      "name": "add",
      "outputs": [],
      "payable": false,
      "stateMutability": "nonpayable",
      "type": "function",
      "signature": "0x4f2be91f"
    },
    {
      "constant": false,
      "inputs": [],
      "name": "addDiscount",
      "outputs": [],
      "payable": false,
      "stateMutability": "nonpayable",
      "type": "function",
      "signature": "0xeb82845d"
    }
  ],
  "bytecode": "0x608060405234801561001057600080fd5b506000808190555061002f610034640100000000026401000000009004565b610183565b60016000540160008190555060606040519081016040528060005481526020016040805190810160405280600781526020017f4161736877696e000000000000000000000000000000000000000000000000008152508152602001600081525060016000805481526020019081526020016000206000820151816000015560208201518160010190805190602001906100ce9291906100de565b5060408201518160020155905050565b828054600181600116156101000203166002900490600052602060002090601f016020900481019282601f1061011f57805160ff191683800117855561014d565b8280016001018555821561014d579182015b8281111561014c578251825591602001919060010190610131565b5b50905061015a919061015e565b5090565b61018091905b8082111561017c576000816000905550600101610164565b5090565b90565b6103e4806101926000396000f3fe608060405260043610610062576000357c0100000000000000000000000000000000000000000000000000000000900463ffffffff1680630c55699c146100675780632b346423146100925780634f2be91f14610154578063eb82845d1461016b575b600080fd5b34801561007357600080fd5b5061007c610182565b6040518082815260200191505060405180910390f35b34801561009e57600080fd5b506100cb600480360360208110156100b557600080fd5b8101908080359060200190929190505050610188565b6040518084815260200180602001838152602001828103825284818151815260200191508051906020019080838360005b838110156101175780820151818401526020810190506100fc565b50505050905090810190601f1680156101445780820380516001836020036101000a031916815260200191505b5094505050505060405180910390f35b34801561016057600080fd5b5061016961024a565b005b34801561017757600080fd5b506101806102f4565b005b60005481565b6001602052806000526040600020600091509050806000015490806001018054600181600116156101000203166002900480601f01602080910402602001604051908101604052809291908181526020018280546001816001161561010002031660029004801561023a5780601f1061020f5761010080835404028352916020019161023a565b820191906000526020600020905b81548152906001019060200180831161021d57829003601f168201915b5050505050908060020154905083565b60016000540160008190555060606040519081016040528060005481526020016040805190810160405280600781526020017f4161736877696e000000000000000000000000000000000000000000000000008152508152602001600081525060016000805481526020019081526020016000206000820151816000015560208201518160010190805190602001906102e4929190610313565b5060408201518160020155905050565b6032600160006001815260200190815260200160002060020181905550565b828054600181600116156101000203166002900490600052602060002090601f016020900481019282601f1061035457805160ff1916838001178555610382565b82800160010185558215610382579182015b82811115610381578251825591602001919060010190610366565b5b50905061038f9190610393565b5090565b6103b591905b808211156103b1576000816000905550600101610399565b5090565b9056fea165627a7a723058200771bc26693e3e2add6ece94ca715bd261c39894fdb4f97c9bde0a0a39d014040029",
  "source": "pragma solidity ^0.5.0;\n\ncontract Election {\n\n    struct Product\n    {\n        int id;\n        string name;\n        int discount;\n    }\n    \n    int public x;\n    mapping(int => Product) public products;\n    constructor () public {\n  \n        x=0;\n        add();\n    }\n\n    function add() public\n    {\n        x=x+1;\n        products[x]=Product(x,'Aashwin',0);\n    }\n\n    function addDiscount() public\n    {\n        \n        products[1].discount=50;\n    }\n}\n",
  "sourcePath": "E:/block/contracts/Election.sol",
  "compiler": {
    "name": "solc",
    "version": "0.5.0+commit.1d4f565a.Emscripten.clang"
  },
  "schemaVersion": "3.0.2",
  "updatedAt": "2019-08-08T16:23:48.237Z",
  "devdoc": {
    "methods": {}
  },
  "userdoc": {
    "methods": {}
  }
}