{
  "contractName": "Product",
  "abi": [
    {
      "constant": true,
      "inputs": [
        {
          "name": "",
          "type": "uint256"
        }
      ],
      "name": "products",
      "outputs": [
        {
          "name": "id",
          "type": "uint256"
        },
        {
          "name": "name",
          "type": "string"
        }
      ],
      "payable": false,
      "stateMutability": "view",
      "type": "function",
      "signature": "0x7acc0b20"
    },
    {
      "constant": true,
      "inputs": [],
      "name": "productsCount",
      "outputs": [
        {
          "name": "",
          "type": "uint256"
        }
      ],
      "payable": false,
      "stateMutability": "view",
      "type": "function",
      "signature": "0xe0df7bb6"
    },
    {
      "inputs": [],
      "payable": false,
      "stateMutability": "nonpayable",
      "type": "constructor",
      "signature": "constructor"
    }
  ],
  "bytecode": "0x608060405234801561001057600080fd5b5061005e6040805190810160405280600981526020017f50726f6475637420310000000000000000000000000000000000000000000000815250610151640100000000026401000000009004565b6100ab6040805190810160405280600981526020017f50726f6475637420320000000000000000000000000000000000000000000000815250610151640100000000026401000000009004565b6100f86040805190810160405280600981526020017f50726f6475637420330000000000000000000000000000000000000000000000815250610151640100000000026401000000009004565b6101456040805190810160405280600981526020017f50726f6475637420340000000000000000000000000000000000000000000000815250610151640100000000026401000000009004565b6000808190555061025f565b6000808154809291906001019190505550604080519081016040528060005481526020018281525060016000805481526020019081526020016000206000820151816000015560208201518160010190805190602001906101b39291906101ba565b5090505050565b828054600181600116156101000203166002900490600052602060002090601f016020900481019282601f106101fb57805160ff1916838001178555610229565b82800160010185558215610229579182015b8281111561022857825182559160200191906001019061020d565b5b509050610236919061023a565b5090565b61025c91905b80821115610258576000816000905550600101610240565b5090565b90565b6102258061026e6000396000f3fe60806040526004361061004c576000357c0100000000000000000000000000000000000000000000000000000000900463ffffffff1680637acc0b2014610051578063e0df7bb61461010c575b600080fd5b34801561005d57600080fd5b5061008a6004803603602081101561007457600080fd5b8101908080359060200190929190505050610137565b6040518083815260200180602001828103825283818151815260200191508051906020019080838360005b838110156100d05780820151818401526020810190506100b5565b50505050905090810190601f1680156100fd5780820380516001836020036101000a031916815260200191505b50935050505060405180910390f35b34801561011857600080fd5b506101216101f3565b6040518082815260200191505060405180910390f35b6001602052806000526040600020600091509050806000015490806001018054600181600116156101000203166002900480601f0160208091040260200160405190810160405280929190818152602001828054600181600116156101000203166002900480156101e95780601f106101be576101008083540402835291602001916101e9565b820191906000526020600020905b8154815290600101906020018083116101cc57829003601f168201915b5050505050905082565b6000548156fea165627a7a7230582011c345de0b01eb744a325ba1448ec3425fedd0194e16e3b2d221a45b902d4e440029",
  "source": "pragma solidity ^0.5.0;\n\ncontract Product {\n  struct Items {\n    uint id;\n    string name;\n  }\n  //Stores the product count\n  uint public productsCount;\n  mapping( uint => Items ) public products;\n  constructor() public {\n\n      addProduct(\"Product 1\");\n      addProduct(\"Product 2\");\n      addProduct(\"Product 3\");\n      addProduct(\"Product 4\");\n      productsCount = 0;\n\n  }\n  function addProduct (string memory _name) private {\n        productsCount ++;\n        products[productsCount] = Items(productsCount, _name);\n    }\n  \n}\n",
  "sourcePath": "E:/CustomerLoyality/contracts/Product.sol",
  "compiler": {
    "name": "solc",
    "version": "0.5.0+commit.1d4f565a.Emscripten.clang"
  },
  "schemaVersion": "3.0.2",
  "updatedAt": "2019-08-07T13:42:07.807Z",
  "devdoc": {
    "methods": {}
  },
  "userdoc": {
    "methods": {}
  }
}