{
  "contractName": "Product",
  "abi": [
    {
      "constant": true,
      "inputs": [
        {
          "name": "",
          "type": "uint256"
        }
      ],
      "name": "products",
      "outputs": [
        {
          "name": "id",
          "type": "uint256"
        },
        {
          "name": "name",
          "type": "string"
        }
      ],
      "payable": false,
      "stateMutability": "view",
      "type": "function",
      "signature": "0x7acc0b20"
    },
    {
      "constant": true,
      "inputs": [],
      "name": "productsCount",
      "outputs": [
        {
          "name": "",
          "type": "uint256"
        }
      ],
      "payable": false,
      "stateMutability": "view",
      "type": "function",
      "signature": "0xe0df7bb6"
    },
    {
      "inputs": [],
      "payable": false,
      "stateMutability": "nonpayable",
      "type": "constructor",
      "signature": "constructor"
    }
  ],
  "bytecode": "0x608060405234801561001057600080fd5b5061005e6040805190810160405280600981526020017f50726f647563742031000000000000000000000000000000000000000000000081525061014a640100000000026401000000009004565b6100ab6040805190810160405280600981526020017f50726f647563742032000000000000000000000000000000000000000000000081525061014a640100000000026401000000009004565b6100f86040805190810160405280600981526020017f50726f647563742033000000000000000000000000000000000000000000000081525061014a640100000000026401000000009004565b6101456040805190810160405280600981526020017f50726f647563742034000000000000000000000000000000000000000000000081525061014a640100000000026401000000009004565b610259565b600160008154809291906001019190505550604080519081016040528060015481526020018281525060008060015481526020019081526020016000206000820151816000015560208201518160010190805190602001906101ad9291906101b4565b5090505050565b828054600181600116156101000203166002900490600052602060002090601f016020900481019282601f106101f557805160ff1916838001178555610223565b82800160010185558215610223579182015b82811115610222578251825591602001919060010190610207565b5b5090506102309190610234565b5090565b61025691905b8082111561025257600081600090555060010161023a565b5090565b90565b610225806102686000396000f3fe60806040526004361061004c576000357c0100000000000000000000000000000000000000000000000000000000900463ffffffff1680637acc0b2014610051578063e0df7bb61461010c575b600080fd5b34801561005d57600080fd5b5061008a6004803603602081101561007457600080fd5b8101908080359060200190929190505050610137565b6040518083815260200180602001828103825283818151815260200191508051906020019080838360005b838110156100d05780820151818401526020810190506100b5565b50505050905090810190601f1680156100fd5780820380516001836020036101000a031916815260200191505b50935050505060405180910390f35b34801561011857600080fd5b506101216101f3565b6040518082815260200191505060405180910390f35b6000602052806000526040600020600091509050806000015490806001018054600181600116156101000203166002900480601f0160208091040260200160405190810160405280929190818152602001828054600181600116156101000203166002900480156101e95780601f106101be576101008083540402835291602001916101e9565b820191906000526020600020905b8154815290600101906020018083116101cc57829003601f168201915b5050505050905082565b6001548156fea165627a7a7230582003fd94f302f72530fe142cc7f39d8b18c3a0594157b9e26c88acfaf2b41117d50029",
  "source": "pragma solidity ^0.5.0;\n\ncontract Product {\n  \n  struct Items {\n        uint id;\n        string name;\n    }\n\nmapping(uint => Items) public products;\n\nuint public productsCount;\n\nconstructor() public {\n      addProduct(\"Product 1\");\n      addProduct(\"Product 2\");\n      addProduct(\"Product 3\");\n      addProduct(\"Product 4\");\n     }\n\n    function addProduct(string memory _name) private {\n        productsCount ++;\n        products[productsCount] = Items(productsCount, _name);\n    }\n \n}\n",
  "sourcePath": "E:/block/contracts/Product.sol",
  "compiler": {
    "name": "solc",
    "version": "0.5.0+commit.1d4f565a.Emscripten.clang"
  },
  "schemaVersion": "3.0.2",
  "updatedAt": "2019-08-08T10:41:50.115Z",
  "devdoc": {
    "methods": {}
  },
  "userdoc": {
    "methods": {}
  }
}